{
  "contractName": "BasicMathTestContract",
  "abi": [
    {
      "constant": true,
      "inputs": [
        {
          "name": "a",
          "type": "uint256"
        },
        {
          "name": "b",
          "type": "uint256"
        }
      ],
      "name": "getTimes",
      "outputs": [
        {
          "name": "",
          "type": "bool"
        },
        {
          "name": "",
          "type": "uint256"
        }
      ],
      "payable": false,
      "stateMutability": "pure",
      "type": "function"
    },
    {
      "constant": true,
      "inputs": [
        {
          "name": "a",
          "type": "uint256"
        },
        {
          "name": "b",
          "type": "uint256"
        }
      ],
      "name": "getDividedBy",
      "outputs": [
        {
          "name": "",
          "type": "bool"
        },
        {
          "name": "",
          "type": "uint256"
        }
      ],
      "payable": false,
      "stateMutability": "pure",
      "type": "function"
    },
    {
      "constant": true,
      "inputs": [
        {
          "name": "a",
          "type": "uint256"
        },
        {
          "name": "b",
          "type": "uint256"
        }
      ],
      "name": "getPlus",
      "outputs": [
        {
          "name": "",
          "type": "bool"
        },
        {
          "name": "",
          "type": "uint256"
        }
      ],
      "payable": false,
      "stateMutability": "pure",
      "type": "function"
    },
    {
      "constant": true,
      "inputs": [
        {
          "name": "a",
          "type": "uint256"
        },
        {
          "name": "b",
          "type": "uint256"
        }
      ],
      "name": "getMinus",
      "outputs": [
        {
          "name": "",
          "type": "bool"
        },
        {
          "name": "",
          "type": "uint256"
        }
      ],
      "payable": false,
      "stateMutability": "pure",
      "type": "function"
    }
  ],
  "bytecode": "0x6060604052341561000f57600080fd5b61046b8061001e6000396000f300606060405260043610610062576000357c0100000000000000000000000000000000000000000000000000000000900463ffffffff1680632efe4c3e1461006757806335192c16146100b257806343c5df4e146100fd578063f99cb0c914610148575b600080fd5b341561007257600080fd5b6100916004808035906020019091908035906020019091905050610193565b60405180831515151581526020018281526020019250505060405180910390f35b34156100bd57600080fd5b6100dc600480803590602001909190803590602001909190505061023e565b60405180831515151581526020018281526020019250505060405180910390f35b341561010857600080fd5b61012760048080359060200190919080359060200190919050506102e9565b60405180831515151581526020018281526020019250505060405180910390f35b341561015357600080fd5b6101726004808035906020019091908035906020019091905050610394565b60405180831515151581526020018281526020019250505060405180910390f35b6000808373__BasicMathLib__________________________631d3b9edf9091856000604051604001526040518363ffffffff167c01000000000000000000000000000000000000000000000000000000000281526004018083815260200182815260200192505050604080518083038186803b151561021257600080fd5b6102c65a03f4151561022357600080fd5b50505060405180519060200180519050915091509250929050565b6000808373__BasicMathLib__________________________6366098d4f9091856000604051604001526040518363ffffffff167c01000000000000000000000000000000000000000000000000000000000281526004018083815260200182815260200192505050604080518083038186803b15156102bd57600080fd5b6102c65a03f415156102ce57600080fd5b50505060405180519060200180519050915091509250929050565b6000808373__BasicMathLib__________________________63f4f3bdc19091856000604051604001526040518363ffffffff167c01000000000000000000000000000000000000000000000000000000000281526004018083815260200182815260200192505050604080518083038186803b151561036857600080fd5b6102c65a03f4151561037957600080fd5b50505060405180519060200180519050915091509250929050565b6000808373__BasicMathLib__________________________63e39bbf689091856000604051604001526040518363ffffffff167c01000000000000000000000000000000000000000000000000000000000281526004018083815260200182815260200192505050604080518083038186803b151561041357600080fd5b6102c65a03f4151561042457600080fd5b505050604051805190602001805190509150915092509290505600a165627a7a72305820deb68ded263bd27ecfdaef89a45c2276d737562beff40c1dd852793eb07f0a760029",
  "source": "pragma solidity ^0.4.19;\n\nimport \"./BasicMathLib.sol\";\n\ncontract BasicMathTestContract {\n  using BasicMathLib for uint256;\n\n  function getTimes(uint256 a, uint256 b) public pure returns (bool,uint256){\n    return a.times(b);\n  }\n\n  function getDividedBy(uint256 a, uint256 b) public pure returns (bool,uint256) {\n    return a.dividedBy(b);\n  }\n\n  function getPlus(uint256 a, uint256 b) public pure returns (bool,uint256) {\n    return a.plus(b);\n  }\n\n  function getMinus(uint256 a, uint256 b) public pure returns (bool,uint256) {\n    return a.minus(b);\n  }\n\n}\n",
  "sourcePath": "/Users/hackdom/Projects/ethereum-libraries/BasicMathLib/contracts/BasicMathTestContract.sol",
  "compiler": {
    "name": "solc",
    "version": "0.4.19+commit.c4cbbb05.Emscripten.clang"
  },
  "schemaVersion": "2.0.0",
  "updatedAt": "2018-03-28T18:53:33.850Z"
}