{
  "contractName": "BasicMathTestContract",
  "abi": [
    {
      "constant": true,
      "inputs": [
        {
          "name": "a",
          "type": "uint256"
        },
        {
          "name": "b",
          "type": "uint256"
        }
      ],
      "name": "getTimes",
      "outputs": [
        {
          "name": "",
          "type": "bool"
        },
        {
          "name": "",
          "type": "uint256"
        }
      ],
      "payable": false,
      "stateMutability": "pure",
      "type": "function"
    },
    {
      "constant": true,
      "inputs": [
        {
          "name": "a",
          "type": "uint256"
        },
        {
          "name": "b",
          "type": "uint256"
        }
      ],
      "name": "getDividedBy",
      "outputs": [
        {
          "name": "",
          "type": "bool"
        },
        {
          "name": "",
          "type": "uint256"
        }
      ],
      "payable": false,
      "stateMutability": "pure",
      "type": "function"
    },
    {
      "constant": true,
      "inputs": [
        {
          "name": "a",
          "type": "uint256"
        },
        {
          "name": "b",
          "type": "uint256"
        }
      ],
      "name": "getPlus",
      "outputs": [
        {
          "name": "",
          "type": "bool"
        },
        {
          "name": "",
          "type": "uint256"
        }
      ],
      "payable": false,
      "stateMutability": "pure",
      "type": "function"
    },
    {
      "constant": true,
      "inputs": [
        {
          "name": "a",
          "type": "uint256"
        },
        {
          "name": "b",
          "type": "uint256"
        }
      ],
      "name": "getMinus",
      "outputs": [
        {
          "name": "",
          "type": "bool"
        },
        {
          "name": "",
          "type": "uint256"
        }
      ],
      "payable": false,
      "stateMutability": "pure",
      "type": "function"
    }
  ],
  "bytecode": "0x6060604052341561000f57600080fd5b6104378061001e6000396000f300606060405260043610610062576000357c0100000000000000000000000000000000000000000000000000000000900463ffffffff1680632efe4c3e1461006757806335192c16146100b257806343c5df4e146100fd578063f99cb0c914610148575b600080fd5b341561007257600080fd5b6100916004808035906020019091908035906020019091905050610193565b60405180831515151581526020018281526020019250505060405180910390f35b34156100bd57600080fd5b6100dc6004808035906020019091908035906020019091905050610231565b60405180831515151581526020018281526020019250505060405180910390f35b341561010857600080fd5b61012760048080359060200190919080359060200190919050506102cf565b60405180831515151581526020018281526020019250505060405180910390f35b341561015357600080fd5b610172600480803590602001909190803590602001909190505061036d565b60405180831515151581526020018281526020019250505060405180910390f35b6000808373__BasicMathLib__________________________631d3b9edf9091856040518363ffffffff167c01000000000000000000000000000000000000000000000000000000000281526004018083815260200182815260200192505050604080518083038186803b151561020957600080fd5b5af4151561021657600080fd5b50505060405180519060200180519050915091509250929050565b6000808373__BasicMathLib__________________________6366098d4f9091856040518363ffffffff167c01000000000000000000000000000000000000000000000000000000000281526004018083815260200182815260200192505050604080518083038186803b15156102a757600080fd5b5af415156102b457600080fd5b50505060405180519060200180519050915091509250929050565b6000808373__BasicMathLib__________________________63f4f3bdc19091856040518363ffffffff167c01000000000000000000000000000000000000000000000000000000000281526004018083815260200182815260200192505050604080518083038186803b151561034557600080fd5b5af4151561035257600080fd5b50505060405180519060200180519050915091509250929050565b6000808373__BasicMathLib__________________________63e39bbf689091856040518363ffffffff167c01000000000000000000000000000000000000000000000000000000000281526004018083815260200182815260200192505050604080518083038186803b15156103e357600080fd5b5af415156103f057600080fd5b505050604051805190602001805190509150915092509290505600a165627a7a723058203d5395477ac0b5118d7f5920fc1f7f1be976145a87edfc9b16f2b457810705540029",
  "source": "pragma solidity 0.4.21;\n\nimport \"./BasicMathLib.sol\";\n\ncontract BasicMathTestContract {\n  using BasicMathLib for uint256;\n\n  function getTimes(uint256 a, uint256 b) public pure returns (bool,uint256){\n    return a.times(b);\n  }\n\n  function getDividedBy(uint256 a, uint256 b) public pure returns (bool,uint256) {\n    return a.dividedBy(b);\n  }\n\n  function getPlus(uint256 a, uint256 b) public pure returns (bool,uint256) {\n    return a.plus(b);\n  }\n\n  function getMinus(uint256 a, uint256 b) public pure returns (bool,uint256) {\n    return a.minus(b);\n  }\n\n}\n",
  "sourcePath": "/Users/hackdom/Projects/ethereum-libraries-basic-math/contracts/BasicMathTestContract.sol",
  "compiler": {
    "name": "solc",
    "version": "0.4.21+commit.dfe3193c.Emscripten.clang"
  },
  "schemaVersion": "2.0.0",
  "updatedAt": "2018-04-07T16:10:08.456Z"
}